:020000040003F7
:10AC0000383800200DAD030027AD030029AD030047
:10AC10000000000000000000000000000000000034
:10AC20000000000000000000000000002BAD030049
:10AC300000000000000000002DAD03002FAD030058
:10AC400031AD030031AD030031AD030031AD030080
:10AC500031AD03000000000031AD030031AD030051
:10AC600031AD030031AD030031AD030031AD030060
:10AC700031AD03005DBC030031AD030031AD030015
:10AC800031AD0300BDBC030031AD030031AD0300A5
:10AC9000DDBC030031AD0300E5BC030031AD0300B2
:10ACA00031AD030031AD03000000000000000000E2
:10ACB0000000000000000000000000000000000094
:10ACC0000448854600F080F80048004735D003006E
:10ACD000C046C04638380020056885F308884068BB
:10ACE000FF2464B2EFF30585002D01D1A64600478D
:10ACF0002546064621273FBAF0B400240025002649
:10AD00000027F0B4F92040B20047000003210948B1
:10AD100002680A430260084802680A430260074862
:10AD2000804707480047FEE7FEE7FEE7FEE7FEE74D
:10AD3000FEE70000240500405405004005BD030067
:10AD4000C1AC030010B5202A04DB0146203A914033
:10AD5000002010BD914020239C1A0346E340194374
:10AD6000904010BD03460B439B0703D009E008C980
:10AD7000121F08C0042AFAD203E00B780370401CAB
:10AD8000491C521EF9D27047D2B201E00270401C39
:10AD9000491EFBD270470022F6E710B513460A465B
:10ADA00004461946FFF7F0FF204610BD30B50446B3
:10ADB0000020034600E05B1C934203D2E05CCD5CC4
:10ADC000401BF8D030BD0000064C0125064E05E0C2
:10ADD000E36807CC2B430C3C98471034B442F7D3BC
:10ADE000FFF772FF90F70300B0F70300F0B50024FF
:10ADF000151C1E1C8DB0139B029003911C571F1D28
:10AE00003B1C04A8111C0094029A00F0A4FC04A8A6
:10AE1000011C139A00F08FFC029804AA011C139BDA
:10AE200000F079FC281C291C04AA139B00F073FC79
:10AE30003B1C301C311C039A009400F08CFC04A8CD
:10AE4000311C139A00F077FC04A8011C029A3B1CE9
:10AE5000009400F080FC04A8011C2A1C3B1C0094F8
:10AE600000F079FC281C291C029A3B1C009400F07D
:10AE700072FC03982A1C011C139B00F04CFC1298D6
:10AE8000029904AA3B1C009400F065FC301C311CA4
:10AE9000129A139B00F03FFC301C311C039A3B1CA0
:10AEA000009400F058FC281C04A9221C00F0E3FCCC
:10AEB0000DB0F0BDF0B51C1C071C161C0D1C89B094
:10AEC0006846111C1A1C00F036FC381C391C6A46F6
:10AED000231C00F020FC68466946321C231C00F04D
:10AEE0001AFC281C291C6A46231C00F014FC09B01B
:10AEF000F0BD002A03D0013A8B5C8354F9E7704718
:10AF0000F7B51E1C01910223F15E051CC81DC31775
:10AF10001F315B0F1B18C817C00E41184911DB10F9
:10AF20000091141E9C4200D91C1C6B460027DF5761
:10AF3000281C391C00F068FA221C281C0199FFF714
:10AF4000D8FF0223F25EE400944220D9A41A002222
:10AF5000009B9B00EB18043B191D8D4209D2196818
:10AF6000081CE04002431A602022121B91400A1C78
:10AF7000F1E72436301C291C3A1C00F051FA012854
:10AF800005D0281C291C321C3B1C00F0D9FCF7BD45
:10AF9000F0B5002697B0049103939E57051C311C11
:10AFA000101C141C00F061FA002800D096E006A8DE
:10AFB0000499039A00F0BFFB039B0EA8291C06AA64
:10AFC00000F0A9FB06A8011C039A00F0B4FB04984A
:10AFD000039B011C221C00F09EFB201C211C039AD9
:10AFE00000F0A9FB039B281C1F1D291C221C3B1CD5
:10AFF000009600F0D9FA201C211C221C3B1C009654
:10B0000000F0D2FA201C291C221C3B1C009600F0E8
:10B01000A2FB281C291C221C039B00F07CFB201C8B
:10B02000291C2A1C3B1C009600F0BEFA281C3B1C65
:10B030000096291C221C00F0B7FA2B68281CDB079D
:10B0400013D53A1C331C291C00F0B2F9311C0590B1
:10B05000281C00F001FC224B059AF3189B00EB180A
:10B060001968D2070A431A6002E0311C00F0F4FBB1
:10B07000201C291C039A00F05EFB201C211C0EAA38
:10B080003B1C009600F067FB201C211C0EAA3B1CF9
:10B09000009600F060FB0EA8011C221C3B1C0096D1
:10B0A00000F059FB281C291C0EAA039B00F033FB5F
:10B0B00006A8021C3B1C291C009600F04CFB281C17
:10B0C000211C321C00F0D7FB201C0499321C00F01C
:10B0D000D2FB049806A9321C00F0CDFB17B0F0BDDE
:10B0E000FFFFFF3F00487047E0F60300F0B5002582
:10B0F000EFB01C1C749B08901B7806910393749B03
:10B10000079202229B5E4EAF1F33DA17D20ED3187E
:10B110005B115BB20293013B9B000593059A26AB42
:10B1200056AED550D55195510122749B211C9A568B
:10B13000381CFFF7DEFE0122749B301C9A56A118C2
:10B14000FFF7D7FE0C246B461C57381C211C00F05F
:10B150008CF90390A84200D023E1301C211C00F0A0
:10B1600084F9039D0490002800D01AE1749B391CD7
:10B170002433181C029A039300F052F9049D01280D
:10B1800000D00EE10398311C029A00F049F9049DA9
:10B19000012800D005E1311C1EA8039A029B00F093
:10B1A0001CFA059B049A0EAE9A51301C0699079A18
:10B1B000749BFFF7A5FE029B301C311C00931EAA56
:10B1C000039B00F095FA029B5EAD391C009316A814
:10B1D000039B1EAA00F08CFA281C0899221C00F080
:10B1E0004AFBA3000593EB180793059A089B079861
:10B1F0009918221C00F03FFB749B36AF4433191C96
:10B20000381C221C099300F036FB211C749B103162
:10B210008900591804313EA8221C00F02CFB749BB5
:10B22000291C04331EA83A1C0094069300F093FADC
:10B23000749B2A1C0193381C3EA9079B0097FFF7BB
:10B24000D5FD1EA8011C069A231C00F0C6F9281C77
:10B250001EAA0799749BFFF72DFE049B301C0A93CE
:10B26000099B02990B93089B0D950C9300F0D2FA61
:10B270000299061C16A800F0CDFA051CB04200DAAF
:10B28000351CADB26F1E3FB2391C0EA800F086FB14
:10B29000061C391C701E864116A800F07FFB431E59
:10B2A0009841400006430AABB600F65826A8311C68
:10B2B000221C00F0E0FA059B2EA8F118221C00F0D9
:10B2C000DAFA1EA8211C00F09FF80123023D1E930C
:10B2D000ADB22FB2002F45DB749B1EAAA4331E68AB
:10B2E00026A8749B2EA9B047391C0EA800F056FB67
:10B2F000061C391C701E864116A800F04FFB431E29
:10B30000984140000643B6000AABF758002F27D0FB
:10B3100036AE301C391C221C00F0ADFA059B3EA84D
:10B32000F918221C00F0A7FA301C3EA91EAA749B33
:10B33000FFF7C0FD46A826A9321C069B009400F02A
:10B340000AFA749B301C01933EA926AA2EAB0096E4
:10B35000FFF74CFD1EA8011C46AA749B00F0DBF908
:10B36000013DB5E71EA8011C069A231C00F035F923
:10B3700026A82EA91EAA749BFFF79CFD039826A958
:10B38000029A00F04DF8012805D026A8011C039A66
:10B39000029B00F0D5FA26A84EA9221C00F053F813
:10B3A000051C281C6FB0F0BD00000000000000006C
:10B3B00070B50824E31ADB000133041C002003A548
:10B3C0005B1920C940CAAD1920C4184720C940CA1A
:10B3D000754120C420C940CA754120C420C940CA53
:10B3E000754120C420C940CA754120C420C940CA43
:10B3F000754120C420C940CA754120C420C940CA33
:10B40000754120C4404170BD002310B55AB28A4234
:10B4100005DA0024920001331450DBB2F6E710BDC8
:10B4200010B5013AD2B253B2002B07DB9B00C458CF
:10B43000CB589C4204D8F4D2FF2002E0002000E068
:10B44000012040B210BD002330B5013AD2B254B24F
:10B45000002C07DBA4000D590459013A6C4023432A
:10B46000D2B2F4E75842584130BD00231A1C10B53F
:10B470005CB28C4205DAA400245801332243DBB2CB
:10B48000F6E75042504110BDF0B51D1CA7B016ABF9
:10B4900003900591101C291C0493161C00F0BAF9A6
:10B4A000AB01181A83B200936B460027DF5F3D4B58
:10B4B000FC17E40EE4196411E4B23B4004D52027E4
:10B4C000013B7F423B43013364B29FB2211C06A87B
:10B4D000FFF79AFF3BB2A400002B11DD06AA141956
:10B4E0000022111CAF00BA4210D0B058984001435E
:10B4F000A1502021B058C91AC8400432011CF2E7FB
:10B5000006AB1819311C2A1C00F0B5F901246B0098
:10B510000193AF0006ABDB1902936B4600229B5EE2
:10B52000002B36DB0020031C019A41B2914216DA4F
:10B5300004AEA20092598900565806AA8A58B21A37
:10B54000D21AB24202D096429B415B420126361B80
:10B55000B60004AFBE5901307250C0B2E4E7E41A3D
:10B560006242624106AE301C291CD4B200F074F96C
:10B570006B1EAA009B0092599959D2070A43029860
:10B58000291C9A5100F068F90098013883B20093A1
:10B59000C3E704ABA4000398E1582A1C00F06BF940
:10B5A00027B0F0BD1F00008070B500251E1C04AB45
:10B5B0005D57041C2B1CFFF7FBFE002806D1301C36
:10B5C000211C2A1CFFF72CFF012805D0201C211C60
:10B5D000321C2B1C00F0B4F970BDF0B5061CA3B0F2
:10B5E0000F1C081C191C151C1C1CFFF73EFF002813
:10B5F00004D0301C211CFFF707FF77E002A8391C9C
:10B60000221C00F038F90AA8291C221C00F033F98A
:10B6100012A8211CFFF7F8FE01231AA8211C12937F
:10B62000FFF7F2FE02A80AA9221CFFF7F9FE002884
:10B6300057D0029B01930123019A1A4204D102A818
:10B64000211C00F009F927E00A9A01921A4204D15C
:10B650000AA8211C00F000F93DE000281EDD02A828
:10B660000AAA011C231C00F06BF902A8211C00F09F
:10B67000F3F812A81AA9221CFFF7D2FE002805DA57
:10B6800012A8011C2A1C231CFFF792FE12A8011C01
:10B690001AAA231C00F054F912A81DE00AA802AA55
:10B6A000011C231C00F04CF90AA8211C00F0D4F85E
:10B6B0001AA812A9221CFFF7B3FE002805DA1AA85F
:10B6C000011C2A1C231CFFF773FE1AA8011C12AAD6
:10B6D000231C00F035F91AA8291C221C00F042FA9C
:10B6E000A0E7301C12A9221C00F0C5F823B0F0BD61
:10B6F00070B50024061C1D1C90B014AB1C57684686
:10B70000231C00F03AF8301C69462A1C231CFFF762
:10B71000BBFE10B070BD30B51C1C0023051C91B0E1
:10B72000E3566846AC3400F028F82368281C6946C4
:10B73000984711B030BD30B5141C0022051C91B0E3
:10B74000A2566846AC3400F0A2F82368281C69466B
:10B75000984711B030BD70B500251E1C04AB5D5775
:10B76000041C2B1C00F0ECF8002805D0201C211C28
:10B77000321C2B1CFFF71CFE70BDF0B55F46564611
:10B780004D464446F0B4013B9B0098465B00994609
:10B79000002300240025002601B4002702E0370022
:10B7A00040463F1A9A46A346AC46B646F01B14588C
:10B7B000C859030C80B2250CA4B21E006E4363432B
:10B7C000454360431C041B0C00195E412C042D0CE6
:10B7D00000196E4153465C4665461B1874410020B3
:10B7E000454176460437474501DCB742DADD00982B
:10B7F000835123462C46002504364645CDDD4E4573
:10B80000CDDD835101BC3CBC90469946A246AB4677
:10B81000F0BD00000139C9B24BB2002B0ADA002397
:10B820000131C9B2994213D00A4A49B28A1892002A
:10B83000125804E09B001B58002BEBD0EFE7002AC6
:10B8400002D052080133FAE70139490159188BB285
:10B8500018B27047FFFFFF3F002210B58900411862
:10B8600004390B1D984205D20C68630813430B6022
:10B87000E207F5E710BD30B5002463B2934205DA64
:10B880009B00CD580134C550E4B2F6E730BDF0B5A9
:10B890005F4656464D464446F0B4013A9200904603
:10B8A00052009146002200230024002501B4002606
:10B8B00002E02E004046361A92469B46A446AE460B
:10B8C000AF1BCB598859020C80B21C0C9BB21500DF
:10B8D00065435A43444358431304120CC01855415E
:10B8E0002304240CC018654152465B466446BE42A0
:10B8F00003DA002712186B417C41002712186B41B4
:10B900007C4175460436AE4202DAAF1BBE42D3DD3F
:10B91000009842511A462346002404354545C6DDA9
:10B920004D45C6DD425101BC3CBC90469946A246FD
:10B93000AB46F0BD00000000000000000000000069
:10B9400070B50824E31ADB000133002403A5C046C8
:10B950005B1920C940CAAD1B20C0184720C940CA86
:10B96000B54120C020C940CAB54120C020C940CA45
:10B97000B54120C020C940CAB54120C020C940CA35
:10B98000B54120C020C940CAB54120C020C940CA25
:10B99000B54120C064416042604170BD1F234A111F
:10B9A00019401E3B8B409200105818407047000011
:10B9B000F0B50C1C00278BB00822051CFFF75BFFBD
:10B9C000E36A02A80593236B011C0693636B021CB8
:10B9D0000793A36B04970893E36B039709930823DA
:10B9E0000297FFF7E5FC291C061C02AA0823281C65
:10B9F000FFF7DEFC236B86190593636B02A80693A1
:10BA0000A36B011C0793E36B021C0893082309979F
:10BA1000FFF7CEFC291C361802AA0823281CFFF7C2
:10BA2000C7FC236A36180293636A291C0393A36A2E
:10BA300002AA0493A36B281C0893E36B079709934E
:10BA4000082306970597FFF7B3FC636AA26B02937E
:10BA5000A36A06920393E36AE26B0493636B36185E
:10BA600005930893236A07920993291C02AA0823C5
:10BA7000281CFFF79DFCE36A36180293236B291CF0
:10BA80000393636B02AA0493236A281C0893A36A96
:10BA900007970993082306970597FFF751FF236B34
:10BAA000361A0293636B291C0393A36B02AA0493B7
:10BAB000E36B281C0593636A07970893E36A06976C
:10BAC00009930823FFF73CFF636B361A0293A36BBD
:10BAD000291C0393E36B02AA0493236A281C059391
:10BAE000636A08970693A36A0793236B0993082355
:10BAF000FFF726FFA36B361A0293E36B281C039310
:10BB0000636A291C0593A36A02AA0693E36A049751
:10BB10000793636B0897019309930823FFF710FFBE
:10BB2000341A0F4EBC4216DA321D281C291C082379
:10BB3000FFF73EFC0419F7D410E0301D291C082241
:10BB4000FFF76EFC012809D0321D281C291C082390
:10BB5000FFF7F6FE241A002CEFD0F5E70BB0F0BD8E
:10BB6000E0F6030070B5141C0268051C0B1C0026CF
:10BB7000D20705D51A1C291C231CFFF719FC061C2B
:10BB8000281C211CFFF768FE002E08D0044BE41887
:10BB90008023A400281902681B061343036070BDAC
:10BBA000FFFFFF3FF0B5141C8DB0051C0E1C04A850
:10BBB00000212022FFF7F1F803232778281C311CED
:10BBC000221C7FB20493FFF7B6FD231D281C291CFD
:10BBD00004AA00970393FFF7BEFD281C291C321C02
:10BBE000231CFFF798FD221C00978432281C291C77
:10BBF000039BFFF7D9FC0DB0F0BD00008307FF22C7
:10BC0000DB0E9A408907090E994000280BDA0007DD
:10BC1000000F0838830808489B001818C36993432D
:10BC20000B43C3617047830804489B001B181868C6
:10BC3000904308431860704700ED00E000E400E026
:10BC4000BFF34F8F04490348C860BFF34F8F00BF55
:10BC5000FDE700000400FA0500ED00E01CB500243B
:10BC60006846047000F06EFA03F06AFA002818D1F2
:10BC70000E480168002914D00D498968C907C90F09
:10BC80000FD004600B4880686946087101A90A4812
:10BC900002F0B8F8084802F09FF8002801D002F03E
:10BCA0002BF86846007800F06BFA1CBD00D100400C
:10BCB00000D3004000D50040A8F5030010B50649A8
:10BCC0000020086048608860C86003494039086007
:10BCD000486003F0D3FA10BD4011014010B503F0E5
:10BCE0003FFA10BD10B506484068002805D08047CF
:10BCF000002801D000F0E0F810BD01F057F810BDA9
:10BD00007026002010B501F0A1F8002805D01F49C9
:10BD10001D484860C8131E4988611E48018CC9B27D
:10BD200001290BD1828C120708D1028D1206120F45
:10BD3000042A03D1828D1206120F0AD0012921D1C3
:10BD4000818C09071ED1018D0906090F0A2904D02B
:10BD500007E0114A01219160F5E7828D1206120F6A
:10BD600005D00D290ED1808D0006000F0AD10B4899
:10BD70000168012904D00A49016001680129FCD148
:10BD8000C021416110BD0000DFFF07C00005004079
:10BD9000006C0040C00F00F00006004000EC0640C0
:10BDA0007593000030B47446641E2578641CAB4261
:10BDB00000D21D46635D5B00E31830BC184702E00B
:10BDC00008C8121F08C1002AFAD170477047002026
:10BDD00001E001C1121F002AFBD17047202804DABC
:10BDE000012181400348014201D001207047002019
:10BDF00070470000FC06FFBC86B00B2269468A82B1
:10BE000002220A7001234B7088700320C8700A71E7
:10BE100059204871FE20887102A805A901307DDFF4
:10BE2000002816D16846808A0B2807D8411C6A462C
:10BE3000D17109210930117280B205E00C206946E8
:10BE4000C871082008721420C1B200231A4668463F
:10BE500072DF06B07047000010B5144C86B0207A2F
:10BE6000800702D5002006B010BD18216846FEF7F5
:10BE700092FF0620FFF7C0FF0028F4D16946087042
:10BE80000190087228220A824882684673DF0028DF
:10BE9000E9D1012006494005C860162001F054FF91
:10BEA000A06802210843A060DCE7000018260020FB
:10BEB00000050050FFF7C4FEFFF7C2FEF7B5244CA3
:10BEC00082B060880E4681423FD800256846214FE7
:10BED000057000F037F922786078A188884201DA8D
:10BEE000401C00E00020C0B2904204D168460078B7
:10BEF00000F046F927E065786078884201DA401C56
:10BF000000E0002060706846007800F039F9BD421A
:10BF100019D0A068EF000499C151029900290CD0F2
:10BF2000002E0AD0608832464543E0682818FEF7A4
:10BF300019FFA0683818868002E000213818818037
:10BF4000002005B0F0BD0420FBE70920F9E7000060
:10BF500030260020FFFF000010B50D4C03E0401C10
:10BF600000E0002020702078617881420FD0217895
:10BF70006088E26848438018A368CA00D1189A58BC
:10BF8000898890472078A1888842EADAE7E710BDDF
:10BF90003026002030B5CB0008339DB29307002433
:10BFA000002B01D0072030BD044B9A605219DA6093
:10BFB0005C701C7058809980002030BD30260020B5
:10BFC0000A4B5B68002B07D0002A07D0002805D059
:10BFD0000068037C002B03D00820704707207047BF
:10BFE00000230374417442611846704750260020B4
:10BFF00010B50446082902D00020FFF75DFF216834
:10C000006068884710BD00001CB501910090034A8C
:10C0100008216846FFF752FF1CBD0000F1BF030076
:10C02000FFB507469007002581B01E46144600283C
:10C0300025D1002C23D002F0EFFD3046114EF060E8
:10C04000304610300570457002998170446075600B
:10C05000357001240C4875702405046003211420F8
:10C06000FFF7CCFD09480460094CA76003211120AB
:10C07000FFF7C4FD6068B060002005B0F0BD072088
:10C08000FBE700004026002080E200E000E100E045
:10C0900000150140FEB51F4B5B68002B30D0002817
:10C0A0002ED0052901D20720FEBD4369002B27D0E1
:10C0B000437C012B26D000270291044600256946C7
:10C0C00016460D70684600F03DF801A803F052F9DD
:10C0D000002819D0012101700F494460496881602E
:10C0E000029907614661C16068460A490079487053
:10C0F0006846007800F044F803F074F82846FEBD66
:10C100000820FEBD0F46D7E768460425007800F0FA
:10C1100037F8F3E7502600200015014010B5084914
:10C12000496800290AD0002808D04169002905D0B3
:10C1300000210174022103F07DF810BD082010BD1C
:10C140005026002030B5EFF3108172B6094A5468CA
:10C150000123002C04D00370002900D162B630BD49
:10C160005360054B1D68054C254015601C6000227E
:10C170000270F1E76426002080E100E0FC06FFBCCD
:10C1800008494A68002A0CD000280AD1EFF3108031
:10C1900072B60A68044B1A6000224A60002800D177
:10C1A00062B670476426002000E100E070B50546E5
:10C1B00001461C220E48FEF7D5FD0E4C00262670C7
:10C1C0002968002906D00822201DFEF7CBFD201D7E
:10C1D0007ADF02E00748001D7BDF002807D1401E00
:10C1E00060806670044A00210448FFF7E9FE70BDD4
:10C1F000542C00200426002011F303003CF503001A
:10C20000F8B5214C0146028800261E48E589102A0F
:10C2100013D01E4F112A1FD0122A2BD0502A1AD108
:10C22000881DC988A94216D14189022913D10C3031
:10C2300000F016F900280CD112E08A8804464280EA
:10C24000104808220C301831FEF78CFD6670002D66
:10C2500001D100F0B5F9F8BD0021C9434180467015
:10C260003868FFF75BFF0028F5D0A1690029F2D0FC
:10C270008847F8BD034808220C300831FEF772FDEC
:10C28000E7E7000004260020542C00203CF50300C2
:10C2900010B502480068FFF741FF10BD3CF50300F0
:10C2A00070B505460020C043134C86B0208001269F
:10C2B00068468674114901822A4604A93046A0DFE7
:10C2C000002817D10E4B0FCB03936B4607C3A91C55
:10C2D000684663DF00280DD1284600F0CDFB00281A
:10C2E00008D1284600F096FA002803D1A068304310
:10C2F000A060002006B070BD1826002059FE000086
:10C3000044F5030070B51A4D0024A868410701D513
:10C31000002070BD04210843174AA8601549174B37
:10C32000126800BF00BF00BF00BF00BF00BF00BF5A
:10C3300000BF9A4200D000BF0139F2D12A881049CB
:10C340008A4205D01321104676DF0400E1D10BE0CC
:10C35000800709D574DF0400DBD1152001F0F4FC5F
:10C36000A86802210843A860FFF792FF204670BD2D
:10C3700018260020C0D40100842600200024F400E8
:10C38000FFFF000000B587B0152001F0D3FC162098
:10C3900001F0D0FC152001F0D7FC162001F0D4FCF0
:10C3A00024480068059001F0FDFA002817D12248C2
:10C3B00013DF002813D1214B4822214905A802F0A0
:10C3C00093FE002801D0FFF777FD01216A46084659
:10C3D00002F05EFE002802D1684602F04FFE0028FF
:10C3E00026D1184802F040FE002821D100F0AEFC12
:10C3F00000281DD112484830FFF752FF002817D1FE
:10C400001C216846FEF7C7FC0F48019001208003FD
:10C4100002900320694608730020C88108740B4805
:10C4200006906846FFF7C2FE002801D1FFF714FD11
:10C4300007B000BD40F5030000AC0300CDF00300E1
:10C44000702C002051C40300CD0C0000B9C50300BE
:10C4500010B50446FFF7D4FE204601F02BFD10BDB9
:10C460004178027808021043C007C00F70470000EF
:10C4700010B50349085C012101F06EFC10BD0000FD
:10C4800034F5030010B50349085C002101F064FC99
:10C4900010BD000034F503007CB50024074E25468E
:10C4A000305D0122009500231146019501F02EFC1C
:10C4B000641C042CF4D300F003F87CBD34F50300B5
:10C4C00010B500242046FFF7D3FF641C042CF9D3D9
:10C4D00010BD10B543689C184460002904D105E0E4
:10C4E00018780870491C5B1C521EF9D2012010BD3F
:10C4F000002807D00449814204D80449814201D967
:10C5000001207047002070478826002098260020D0
:10C51000F8B52348416800293ED00E6821494C688F
:10C5200087688078E11B0D022D0AED1C002814D1CC
:10C5300001201D4A000450601B4A403A50601B49CC
:10C54000400008601A4908601A49012008602F203D
:10C5500000F0DEFD124901208870B54200D2354658
:10C56000E81900020F4B000A403318600D4A516869
:10C57000001B091B0902090A0002000AC91C8142AA
:10C5800009D9506818602F2000F0C2FD012007492A
:10C59000400480390860F8BD02F03EFBF8BD0000A1
:10C5A00040260020001501404013014080E200E0D9
:10C5B00000E100E00010014010B5FFF77DFC10BD68
:10C5C000F8B5164800F034FC144D00260C3D144C10
:10C5D000002807D0616900291CD001206A4610702C
:10C5E000684616E02878002805D06169002911D036
:10C5F000684606700DE0687800280DD0A1680948EB
:10C6000000220068FFF746FD002803D0A169002939
:10C6100000D088472E70F8BD6168F0E71026002032
:10C62000542C00203CF50300F0B50026F643002A08
:10C6300004D01268D2430023094F0DE03246FAE7D6
:10C64000C45C624008245508D20700D032463A4004
:10C650006A40641EF7D15B1C8B42F1D3D043F0BD1E
:10C660002083B8EDF0B5146907462068251D8DB00C
:10C670001646002819D002291BD00A2000906B46CC
:10C6800009AA384602F023FA00280CD009A901A80B
:10C69000009A02F0F9F801AF0FCF0FC72368716855
:10C6A0002A4605A898470DB0F0BD384602F060F95B
:10C6B000F9E76946384602F0EFF80028F3D023681E
:10C6C00071682A46684698470028ECD002980028EE
:10C6D000F5D1019878600120E5E710B553685B78E3
:10C6E0009B099B0103D0402B04D0002010BD00F01B
:10C6F00005F810BDFFF7B6FF10BD0000F0B50F46FE
:10C7000051680646487814460207120F324D9300CE
:10C71000ED58302385B0184006D0102806D02028C8
:10C7200008D0302855D140E022694FE061690120EE
:10C73000087049E0022F2AD1042A28D8012000904D
:10C7400001A93046676902F0A7F800281DD00AE069
:10C750000A7942432069121801A8A847002810D07E
:10C760003878401C38700398002804D06168387805
:10C770004A799042ECD3029870600398002828D13F
:10C7800002E000200090F6E7009805B0F0BD626975
:10C790000B791078276943434979DB19884218D20D
:10C7A000401C10701A46616810E008786169072A19
:10C7B000087009D1606801792069FEF7ECFA6068B9
:10C7C0002169806802F083F8226961683046A847D1
:10C7D000DBE70020D9E70000BCF6030010B50B49E9
:10C7E00009480B4A096800BF00BF00BF00BF00BF77
:10C7F00000BF00BF00BF914200D000BF0138F2D19E
:10C80000FFF7AAFB10BD0000A086010084260020CF
:10C810000024F40030B58FB004461C216846FEF7B2
:10C82000BAFA142109A8FEF7B6FA00206946079063
:10C830000A7808210A4310231A4369460A70A2782D
:10C8400008A98A700125694602070D84120F0A772C
:10C85000EA184A778A7FF9210A40921C1A432A4330
:10C8600069468A7708A9099107A917220A9169469A
:10C870000A860D90234620880C3309AAA2DF0FB048
:10C8800030BD000002488168491E81607047000089
:10C89000E02500201FB50E480146826B5C316846DA
:10C8A00001F0F2FF6C460ECC0A480EC009490A4856
:10C8B000C8600A49002008604860094A09490548DB
:10C8C00001F07AFD002800D0012004B010BD000066
:10C8D00000300020242C0020F9E60300FC25002075
:10C8E00098260020C8F40300F8B50646041D002071
:10C8F0009C461146002A2BD01A0029D05F22125DD7
:10C90000002A03D06022125D012A21D0227A002A57
:10C910001ED0E268332A1BD10022257C16E00327B3
:10C9200093003F031B19BF895B69BFB2BB420CD1A7
:10C93000254620356B794B4A002B0BD0012B12D0AA
:10C94000022B0CD0032B03D109E0521C9542E6DCEC
:10C950000A20F8BD20780028FAD0906803E02078FB
:10C960000028F5D0D068002B04D0022B06D0032B72
:10C9700007D103E062688242EAD302E06268824241
:10C98000E6D937466037387C0028E1D13748364A47
:10C9900002602022426003466246052000F07CFBD4
:10C9A0000028D5D1304831467A7C72312030FEF7EC
:10C9B000D9F92E482C49083820310160797C416032
:10C9C00003462A4A2A49042000F08CFB002801D0A3
:10C9D0000520F8BD254E00201C3E30616A79002AF2
:10C9E0002BD0012A34D02348FF218902081A022AB9
:10C9F00028D0032AACD1297B0029A9D0A979002904
:10CA0000A6D0A26A216B53183361002A26D00029D0
:10CA100024D081420FD8214620223F311248FEF710
:10CA2000A1F93069002819D0104A0021103A00F00D
:10CA30004BFE002814D00420F8BD287D002887D0A4
:10CA4000A06B09E0297B002982D0216B3161E0E7EE
:10CA5000A879002885D0A06A3061DCE70320F8BD02
:10CA60000120F8BD00300020C42B0020FC25002050
:10CA70002CF5030000AC030010B58EB004461C2159
:10CA80006846FEF788F9142109A8FEF784F9002208
:10CA90006946079208780421084369460870A0781F
:10CAA00008A98870022069460884501C0007000FFE
:10CAB0000A7710304877887FF92108400121801CCF
:10CAC00008436946887708A8099007A80A901420A7
:10CAD00008860D922088231D09AAA2DF0EB010BD82
:10CAE000044A002901D1002313705268002A00D0A3
:10CAF0001047704728260020F8B51C4617460D46FB
:10CB000006001ED0002D1CD0002C1AD000F0C2F957
:10CB1000002818D0284600F0BDF9002813D0204680
:10CB200000F0B8F900280ED0FEF7DCFA009023469A
:10CB30003A4629463046FEF7D9FA002805D00020AB
:10CB4000F8BD0E20F8BD1020F8BD0B20F8BD000088
:10CB500010B50E4900230A784C78A24212D0521C1C
:10CB6000D2B20A70022A00D10B700A78074B9200E9
:10CB700018339A580260886810180002000A88600A
:10CB8000012010BD0360002010BD000040260020E1
:10CB9000F8B506461C481F46007815460C46C007E7
:10CBA0000AD03046FFF7A4FC002807D0002C07D09D
:10CBB000A00507D00620F8BD0120F8BD0220F8BD71
:10CBC0000320F8BD3068A04204D8A802716800199B
:10CBD000884201D90520F8BD002D10D0684601F02B
:10CBE0000BFF00280DD000980221C0C00170A101E8
:10CBF000090C8180058101F051FF0020F8BD04205F
:10CC0000F8BD0720F8BD00006C26002030B4094BA9
:10CC100002241A68520852001A60002906D02243E2
:10CC20001A604268002A03D030BC1047A243F7E7DD
:10CC300030BC7047242600200348012201781143AC
:10CC400001700020704700006C2600200348406EF1
:10CC5000042801D000207047012070478C3100204B
:10CC6000F8B507461E481E46007815460C46C00714
:10CC70000ED03846FFF73CFC00280BD0002D0BD01F
:10CC8000002C09D028462043800707D00620F8BD95
:10CC90000120F8BD0220F8BD0320F8BD3868A0428D
:10CCA00004D8B10078680919884201D20520F8BD7E
:10CCB000002E11D0684601F09FFE00280ED000988B
:10CCC00006990760416001210172C5600461868296
:10CCD00001F0E4FE0020F8BD0420F8BD0720F8BDF7
:10CCE0006C26002070B5174B0446186E1821484377
:10CCF0001549C0180A78950715D5022C02D0032CC7
:10CD00001CD102E001F0D0F918E04A78521CD2B2EE
:10CD10004A70032A12D900224A70082101F0E0FF6C
:10CD200001F054FE0AE0500708D5FB2002400A70CB
:10CD3000586E002802D0022002430A7001F078FEEB
:10CD400070BD00008C3100206C26002010B500243E
:10CD500086B0601C0007000F0194694610300294F1
:10CD6000087003A871DF002819D16946487B401C70
:10CD7000487303A9002070DF002810D1072209A101
:10CD800068467CDF00280AD10C2168468180182182
:10CD9000C180FF2104819131418101A87ADF06B071
:10CDA00010BD00004466755461726700F8B51F4CF1
:10CDB0002078002839D02069002807D00026E068B4
:10CDC000002805D00025002E04D014E00126F6E747
:10CDD0000125F8E76078002827D1684652DF05284A
:10CDE00004D0002804D0FFF767F804E0012602E031
:10CDF000216900988847002D13D16078002814D14C
:10CE0000608869460880A06861DF052804D0002892
:10CE100004D0FFF751F804E0012502E0E168A068C2
:10CE20008847002ED6D0002DCDD0F8BD702600202A
:10CE3000418805480288914204D34088814201D844
:10CE40000120704700207047082600201048018C00
:10CE5000C9B2012917D1818C090714D1018D0906A6
:10CE60000A0F03D1828D1206120F0ED0090F01296D
:10CE700003D1828D1206120F07D0032903D1808DB2
:10CE80000006000F01D0002070470120704700000D
:10CE9000C00F00F0800701D00020704701207047CC
:10CEA00070B5054608680C4686684A6831462846CB
:10CEB00001F034FC6068286120460C3068617078AD
:10CEC0008009022801D1241D2C6170BDF0B5284CC9
:10CED0002146103948688B68227886469C46CF7870
:10CEE000667836E0182353436168521CC918A3784A
:10CEF000D2B2934200D100220B78022B02D0032B36
:10CF000027D123E003464D68194603E0A94204D027
:10CF10000B46C96900291CD0F8E7002919D08B42BB
:10CF200008D1C069002805D1124F0125BD60002538
:10CF3000AC4601270D68C969D961002909D00B6881
:10CF40005B190B6005E00174C06900E00021002856
:10CF5000F9D19642C6D10649624610398A604860C6
:10CF6000CF70704501D00120F0BD0020F0BD000061
:10CF70005026002000100140F8B52C4E0446706881
:10CF80000025009041E0002C02D02046E46920E01A
:10CF9000264818231030017842684B43491CC9B217
:10CFA000D21801708378994200D1057011785068C9
:10CFB00001292CD1017C002929D191684160D168D7
:10CFC00081601169C16051698161F178002900D0E7
:10CFD00045604368B268164F991A0902090AB942B6
:10CFE00002D28268891806E0D11A09028268090A09
:10CFF0008A4202D9511A016000E0056045600121B2
:10D0000085600174C56102F0F5F8002CBBD10748BA
:10D010001030017840788142BAD17168009881421D
:10D0200001D00120F8BD0020F8BD000040260020FE
:10D03000FFFF7F0010B5FFF72FFA0220FFF722FA5B
:10D0400008490748086000F023F8002801D0FEF7DF
:10D05000F7FD03200003806800F006F8002010BDF3
:10D060000C0003005007005010B5044600F09AFC75
:10D07000002809D10549401E0860204613DF00281A
:10D0800002D12046FDF728FE10BD000080E100E03F
:10D0900010B500F0EDFB10BD70B59CB01C461546F8
:10D0A0000E46052802D006201CB070BD60682028FE
:10D0B00001D00920F8E7684601F0D2FE0028F3D13C
:10D0C0002A463146684601F0A7FF0028ECD101222C
:10D0D0006846216801F03CFE0028E5D12020606010
:10D0E0000020E1E770B5042801D0062070BD486833
:10D0F000402802D15868402801D0092070BD30CAAC
:10D1000008681B682A462146FFF7F6FC70BD000040
:10D1100000280FD00849094A096800BF00BF00BFB6
:10D1200000BF00BF00BF00BF00BF914200D000BFE2
:10D130000138F2D170470000842600200024F4005A
:10D14000F1B50320274D00038268286B6E6A121820
:10D1500082B0371A00920124A402A74200D83C46AC
:10D1600000220121009800F0E9FA002838D10023BC
:10D1700022460299009800F043FB002830D1224655
:10D180000299009800F0E2FB002829D10022012139
:10D19000029800F0D3FA002822D1286B00192863E6
:10D1A000002000F03FFD009800190090029800193F
:10D1B00002903F1BCFD1032000038068002231463C
:10D1C000FFF732FAA96A814203D10121AE612962D7
:10D1D000E8610448243000F0ADFB002000F022FD9F
:10D1E000FEBD00000030002010B50A4C206A012866
:10D1F0000CD1E06900280BD003200003A1698068EE
:10D200000022FFF711FAE169814201D0002010BD30
:10D21000012010BD0030002070B50D460A680B4992
:10D22000496B541A0E1822463146094800F08EFB0D
:10D23000002804D02146304600F096FB70BD2846F9
:10D2400000F078FB002000F0EDFC70BD0030002005
:10D2500000AC0300F8B51446404F0A780E4601258D
:10D26000B96BF86B1300FEF79DFD077605203B1C9C
:10D27000766E7600B068002805D0FF210131884223
:10D2800003D90420F8BD0320F8BD3548002484707C
:10D29000324820213830FDF77EFD3C63B068B8632A
:10D2A0005AE06060386CA06056E0B26813188B4298
:10D2B00003D96060386CA060E5E7284B71685C3387
:10D2C000C018FDF74FFDF86BB168244A4018F863A9
:10D2D0004032B1687068FFF7A7F93864F86BE0E78F
:10D2E000884201D00820F8BD1D4CA078002801D04C
:10D2F0000120F8BDFFF7CEFA012822D11948007DA0
:10D300000028194818D0783082781849012A01D0AD
:10D3100005200CE0124A1C320CCAFFF7E5FA01287E
:10D3200005D1002000F07EFC002802D00A2005462E
:10D3300012E00120A0700FE00078002801D00A253B
:10D340000AE00520F8BD386CA060F86B6060FF2033
:10D350000130206000E002252846F8BD00300020A2
:10D36000E0250020F826002098260020242C00200C
:10D3700010B5024603200A4B0003816818461C6959
:10D380001830012C08D05C69002C05D09B69054C35
:10D390000C301B19A343591800F006F810BD00000B
:10D3A00000300020FF030000F8B50D461646014688
:10D3B0008A680020012A0DD00127A52A12D0AA2AA6
:10D3C0001ED0AC2A0DD10C46284600F0BFFB002829
:10D3D00014D119E00F494969012902D12846FFF704
:10D3E000AFFEF8BD28460C4600F0B0FB002805D182
:10D3F000204600F09FFA002000F014FC3760F8BDD2
:10D400002846FFF709FFF8BD21462846FFF704FF2D
:10D41000F4E7000000300020FEB50120009097489E
:10D420000E788078964F019015460C46BA6C396D8F
:10D43000786D3300FEF7B6FC07F2053AF7F3F2EF2A
:10D44000F200A168002946D08C4A8B05126902D0EF
:10D45000431893423FD101231B03994232D8019BC9
:10D46000864D002B7ED0411891427BD8F96CB9646F
:10D47000A1683865796438636978824A491C8907EC
:10D48000890F69700021A980A968491CA960A16859
:10D490008918EA68890A80187B4A00F04FF9002849
:10D4A0007ED0A868401EA8600520FEBD6960B86CEB
:10D4B000A8600198714E0028D4D0FF20A1680130E7
:10D4C000814201D90420FEBD386D7A6D0818801A9A
:10D4D0007A6C904201D90320FEBD694A60684832E7
:10D4E000FFF7A2F866498864086DA268801808658D
:10D4F0006860886CA860B088A2681118FF2907D8F6
:10D50000717867680B02614959180818394643E079
:10D51000FF210131091A8FB2717863680A025B49F1
:10D52000511808183A461946FDF71CFCB088C01976
:10D5300082B2B280A068D21CC01BA0606068920852
:10D54000C0194F4F6060386BF1684018B168491CD2
:10D55000B16071780B024D4959184B4B00F050F9EE
:10D56000002800E063E04CD0B068401EB060F86C6A
:10D57000B864786D38656860F86CA86070780021D0
:10D58000401C8007800F7070B180A268002A71D0A3
:10D5900003023E4861681818FDF7E4FB208900E0AB
:10D5A0002EE0B18840180104B080090C62D0344CE0
:10D5B000626D206B636C821A52189A425AD3F268D9
:10D5C000C91C8018B268521CB2608A0871780B02BC
:10D5D0002E4959182C4B00F013F9002816D0B068CA
:10D5E000401EB060E06CA064606D20656860E06C17
:10D5F000A8607078401C8007800F70700020B08099
:10D6000038E0B188386B40183863B7E7B188206BD1
:10D6100040182063EDE727E001E004E02CE06960BA
:10D62000B86CA86026E07B6C081A984201D00820EC
:10D63000FEBDFA6400207965786400F0F3FA0028F2
:10D6400001D00A20FEBD0D4C386D2169884202D000
:10D6500010E000F04DFBA0680028FAD10B48B0386C
:10D6600000F0ACF9009005E0AA60386D6860012018
:10D67000000328600098FEBD0220F3E7E0250020AB
:10D6800000300020FF03000085C80300C4270020ED
:10D6900010B50B480069000DC007C00F0ED0094837
:10D6A000816D012901D0002010BD0021816508464F
:10D6B00000F0B8FA002801D0FEF7FEFB012010BDF3
:10D6C0000005005000300020F0B58C4618490324B6
:10D6D0004B69032109038968A4025B1A1F1B874257
:10D6E00015D3144C11602346183B196A00250129F3
:10D6F00001D01D610EE0104E216889198E0AB60214
:10D70000BF1B0121B84207D96246002A01D004207C
:10D71000F0BD19615D6106E01D61064C596111683B
:10D720000C34711811606560A56020600020F0BDA8
:10D730000010001018300020FF030000F0B50E4666
:10D740002049044608681546002785B0420719D5C8
:10D75000820702D50A2005B0F0BD01221949104305
:10D760000860B2B22B4621461748FFF711FA0700AE
:10D770001448016802D04908490001E00122114320
:10D7800001601DE0A001000C0490204600F0F0FABA
:10D79000012080022418761EF7D1002D10D00B4AEC
:10D7A00091681068D26802910090019503926946D1
:10D7B00004980881A001000C488100216846A84710
:10D7C0003846C8E7242600208826002054F50300A8
:10D7D00010B501460020084C00290BD0FFF72CFAA9
:10D7E000002804D1054801F0B1FC002801D0082030
:10D7F00010BD0421216010BD24260020E5CC0300CB
:10D80000F0B51646184A074610681C46002585B034
:10D81000430717D5830702D50A2005B0F0BD0123C1
:10D82000114A184310600A46B3B239460F480094B3
:10D83000FFF716FA0500F0D10B48012201681143E9
:10D8400001600EE03246384600F0A8FA002C08D0FD
:10D850000020009003900297019468468681002181
:10D86000A0472846D9E7000024260020882600206B
:10D87000F8B50020009000F0ADF96846FFF778FD9C
:10D880000125002800D00095FFF702FF002801D0F5
:10D89000009511E0009800280ED1FFF7A5FC0028A4
:10D8A0000AD0FFF7A1FC002804D003200003806801
:10D8B000FFF7DAFB0020F8BD184B194A05210020BC
:10D8C000FEF7AEFB002801D0FEF7F6FA144A142149
:10D8D00078320820FEF75EFB002801D0FEF7ECFA54
:10D8E00000F0F0F90028E6D100F0E4F80D4F0E4CFE
:10D8F0000E4D0F4E386800280DD001210020A3687E
:10D900000A468240134202D0820092191560401CE0
:10D91000C0B20728F3D3FEF71FFBEBE709C00300F3
:10D92000DC2C002000040140000501403546526E09
:10D9300000060140002101604160816002480163EE
:10D940004163016141617047003000201FB5054B04
:10D9500092081B6A01AC009307C4684618DF04B044
:10D9600010BD000064F503001FB58908002201AB5B
:10D97000009207C3684618DF04B010BD1FB59208B7
:10D9800013061B0E02D0092004B010BD044B1B6807
:10D990000290009303920191684618DFF4E70000BB
:10D9A00064F503001FB5044B6C460FCB0FC46846EB
:10D9B00018DF04B010BD000074F50300F8B5074689
:10D9C00004462037787F0125032808D00A25354EE4
:10D9D000706900281DD001281ED00A20F8BD334EE2
:10D9E0003148306020203346706018461C38026988
:10D9F000C1680520FFF750FB002800D00A2521460A
:10DA000020223F313068FDF7D1F90028DFD005250D
:10DA1000DDE72448183001E022482430012D03D0EE
:10DA200000218160416027E0797900290ED0012929
:10DA30000ED002290ED003290FD00A2579790029AA
:10DA400010D0022911D0032911D10EE0012102E0EA
:10DA5000A52103E0AA218160F0E7AC218160A16AE1
:10DA60007163EBE76168B16001E06168F160B16C1E
:10DA700041600E491C39096901600A48202138308B
:10DA8000FDF789F90748FF22B2215C30FDF77CF9E8
:10DA900000203063064800F0C5F8002800D00A25B1
:10DAA0002846F8BD00300020C42B0020FC250020B3
:10DAB00089E0030070B50120FFF78AFE002821D11C
:10DAC000114D124CA860A06B00281AD0FEF7E2FEA0
:10DAD000002816D0206A00280BD1A069002808D0A1
:10DAE000094A00210C322861FFF7EEFD0120A870E1
:10DAF00007E0E06A002804D1A069002801D0606A2C
:10DB0000EEE7002070BD0000E0250020003000207E
:10DB100010B50C780C4B012C01D0062C07D10C79D8
:10DB2000012C03D0022C01D0072010BD1C701B78E3
:10DB3000012B03D0022B04D0052010BDFFF78AFB78
:10DB400010BDFFF769FC10BDE0250020F8B50346C5
:10DB500019480122016B12038E18426B174D541A9B
:10DB60006419AC43A7087D19AD0AAD02CF18002A8D
:10DB700003D0914201D10020F8BD2A4639463046F3
:10DB8000FFF7FCFE0028F7D12A4639463046FFF75A
:10DB9000DDFE0028F0D176197F19A54201D90024B5
:10DBA00000E0641B0448416B091B0163002000F086
:10DBB00039F8002CE1D1F8BD00300020FF0300004F
:10DBC00010B5002258210248FEF72EFD10BD0000BE
:10DBD0000430002070B5104900200870FF255D3525
:10DBE0002A460E490E48FDF7BDF80D4C2068401C32
:10DBF00004D0FFF7E5FF216881420CD02946084890
:10DC0000FDF7C9F801206060002000F00BF8002843
:10DC100001D0FEF751F970BD2826002000FC03005A
:10DC20000030002070B50546164C01E0FEF7D6FD29
:10DC300020780028FAD101202070656001F0B0FB47
:10DC4000002201211048FFF779FD0728F6D00025B2
:10DC5000002814D1FFF7B4FF0C49FF225D320860A1
:10DC6000881AFDF77FF801F09BFB094B5722094901
:10DC70000548FFF7C5FD0728F5D0002801D025701D
:10DC8000032070BD2826002000FC03000030002087
:10DC9000E1CA0300A42E002070B50848084D401BBF
:10DCA000C6080020044606E0E000401940688047AE
:10DCB000002802D1641CB442F6D370BDB8F703004B
:10DCC000B0F7030070B50848084D401BC608002097
:10DCD000044606E0E000401900688047002802D1B1
:10DCE000641CB442F6D370BDB8F70300B0F703006C
:10DCF00010B5FEF731F910BD0249012088600249D4
:10DD00000860704700D3004004D0004070B5520056
:10DD10000A439900049D0A432902059E0A433104DF
:10DD200005240A432407800007210019090240182E
:10DD3000026070BD052212078000801807220321AF
:10DD40001202801801607047012181400148816002
:10DD5000704700000005005001228240034800295E
:10DD600001D082607047C26070470000000500501B
:10DD7000084A0221516008490B68002BFCD09060D2
:10DD800008680028FCD00020506008680028FCD0FB
:10DD90007047000000E5014000E40140F0B50C4D83
:10DDA00001236B600B4C2368002BFCD0002306E0A2
:10DDB0009E008F5987512668002EFCD05B1C934231
:10DDC000F6D30020686020680028FCD0F0BD000079
:10DDD00000E5014000E40140016880684A68824231
:10DDE00001D2521C00E000220868824201D10120C9
:10DDF0007047002070478068884201D9481C7047EE
:10DE000000207047FEB504460E460020694601908A
:10DE100008706846FEF796F92046FFF7DDFF070019
:10DE20000AD0207C002807D00420019068460078A2
:10DE3000FEF7A6F90198FEBD2068416820460D4610
:10DE4000FFF7D9FF2168002F486006D020680168DD
:10DE50002046FFF7D0FF21680860E268012A15D04C
:10DE6000022A17D0042A1AD0082A1DD01046616849
:10DE7000684308183146FCF775FF204600F01CFE89
:10DE800021688A688242D1D28860CFE761683078A1
:10DE90004855F2E7616830886A008852EDE76168AA
:10DEA0003068AA008850E8E7626803CEEB00D21819
:10DEB00003C2E2E770B50446314D00882E8814286D
:10DEC0004CD00DDC022836D010281CD0112828D0C8
:10DED000132817D100231A46852130467FDF0DE035
:10DEE000502847D051282AD052283DD0552809D152
:10DEF000A079002806D11321304676DF002801D012
:10DF0000FDF7DAFF70BD01201E498005C8601520AD
:10DF1000FFF71AFFA0882880A86802218843A8601C
:10DF200070BDFDF799FF002801D0FDF7C5FF002067
:10DF3000C043288070BD0021304667DFDEE7A0794E
:10DF40000028F7D02146104800F0D8F80028F1D07A
:10DF5000214608310C4800F019F870BD0023A08854
:10DF60001A46194686DFC9E70023A0881A461946D3
:10DF7000A9DFC3E72146044800F008F970BD00009E
:10DF80001826002000050050B82C002030B50446AB
:10DF900087B00020059003900490009001900290BB
:10DFA0000D7B38482B00FDF7FDFE076A052D3B234E
:10DFB0006A4E6A004A89062A01D0032216E0428886
:10DFC0008280487B0190087C4A7C00041206104342
:10DFD000CA7B8B7B110219430843029001206946DA
:10DFE000087003AA0020FFF793FD024601213CE0E0
:10DFF00003206946087003AA0020FFF789FD024646
:10E00000042132E04A89032A01D0032206E08A7BF8
:10E010004B7B11021943418081800122022124E0BF
:10E0200004206946087003AA0020FFF771FD02462C
:10E03000012801D0032118E02046059A049900F038
:10E0400075FD07B030BD4889022801D003220BE0DE
:10E05000487B019006206946087003AA0020FFF75C
:10E0600057FD0246012804D00621204600F0B8FDE5
:10E07000E7E703AD0ECD204600F082FDE1E7032285
:10E080002946F2E718260020FFF706FEBFF34F8F60
:10E0900004490348C860BFF34F8F00BFFDE700008D
:10E0A0000400FA0500ED00E010B5134A002151709C
:10E0B000017A012911D002290ED18189491C81815F
:10E0C000C189491C89B2C181028A914204D10021CF
:10E0D00000F006FE00F07AFC10BD838AC28A991A0D
:10E0E000FF2901DC89B201E0FF210131511889B219
:10E0F000C1829942EBD010BD6C26002030B587B0AC
:10E10000002401940294039404948A1D8B790831AD
:10E11000022B33D153888589AB422FD1127A042A3E
:10E120002CD0062A2AD0052A28D002236A46137149
:10E13000012595720D8995814D89D5810C31059404
:10E14000049193820692104D018A05AA2888A5DFC2
:10E15000002804D16846FEF783F9002807D06846F6
:10E16000048101A92888A8DF00280AD006E0FF2042
:10E17000FE306946088101A92888A8DF002007B081
:10E1800030BD0120FBE700001826002030B5054611
:10E19000C888AA8887B0904223D1002005900390B8
:10E1A00004900090029002206A46107008461230D7
:10E1B0000190088A029003AA69460020FFF7A8FC94
:10E1C000094C608800280CD0A088401E0004000C78
:10E1D000A08006D12846059A049900F0A7FC608823
:10E1E000A08007B030BD000018260020F8B50D460D
:10E1F00014460646694600F058FA00280DD0009BE8
:10E20000FF2B09D8581C834206D86978890902294E
:10E2100002D02979814201D20020F8BD2370611C0F
:10E220003046009A00F066FBF8BD10B5114600F0CC
:10E23000D1F810BD10B5114600F0E1F810BDF8B5E9
:10E240000C4615460646694600F02FFA00280BD00A
:10E25000009A501C904206D361788909022902D0A5
:10E260002179814201D20020F8BD2946304600F0D4
:10E2700041FB009A0021A954F8BDF0B585B00C46C9
:10E280008E6817460546694600F006FB00280ED04A
:10E29000A06800280BD060783A468006800F0228DC
:10E2A0003146684605D000F0D7F80199696005B09D
:10E2B000F0BD00F081F8F8E77CB50D4614466946DC
:10E2C00000F092F900281FD02879082806D00428E9
:10E2D00008D0022809D001280BD014E00098019939
:10E2E00003C40AE00098206006E0009800B2208095
:10E2F00002E0009840B22070C117009A019B504084
:10E300005940084301D000207CBD01207CBD7CB574
:10E310000D461446694600F0A5F900281FD028795B
:10E32000082807D00021042808D0022809D0012895
:10E330000BD013E00098019903C409E00098206015
:10E3400006E0009880B2208002E00098C0B2207001
:10E35000009A019B50405940084301D000207CBDE9
:10E3600001207CBD7CB50D461446694600F07AF963
:10E3700000281ED028790099082807D0CA17042839
:10E3800009D002280AD001280BD011E0019A06C456
:10E390000846134608E00846216004E008B22080E1
:10E3A00001E048B22070C31748405340184301D0E1
:10E3B00000207CBD01207CBD70B50D46064614468C
:10E3C0001146284600F083FA22462946304600F0DE
:10E3D00043F870BD38B50C460422694600F08AFA4D
:10E3E00000280BD06846807801046846C078000693
:10E3F00001436846008801430120216038BD1CB5F7
:10E400000C460822694600F075FA002823D06946B8
:10E410000A784978080E09020A4369468B78190C74
:10E420001B0408431A436946CB78190A0843694616
:10E4300009791B060843694649791A4309020843CA
:10E4400069468979090408436946C9792260090641
:10E450000843606001201CBDF0B5054600209DB05A
:10E4600001900646029004A800F058F98BE003AB37
:10E470000AAA6946284600F0D2F800280BD004A862
:10E480000A9900F05CF900280BD0059840788006C6
:10E49000800F59D066E06846007B002878D11DB017
:10E4A000F0BD0A98B04249D3059C04AE0598407867
:10E4B0000007000F082814D0304600F057F90598DF
:10E4C000A042F3D10026F6430A98B04236D3A96899
:10E4D00011910C90684600780B900898046816918A
:10E4E00022E005980678EFE720680768002F05D03E
:10E4F000214628460B9B0C9AB84712E012952068DB
:10E500000C9980680B9F007888420CD1214617A88F
:10E51000FEF7C6FC0121217317AA39461298FEF7AF
:10E52000DCF80028BBD0A468002C03D0A96816989A
:10E530008142D9D0A9681198814224D168460178D6
:10E54000284600F015FA1CE0069840280AD2C006BA
:10E55000C00E0121814006984009820001A883581D
:10E560000B438350EC68002C05D06846027804AB5E
:10E5700028460A99A0476846017804AA2846FEF76B
:10E58000ACF800288BD0A868002801D06FE7FFE71F
:10E590000598069C457804A800F0E8F80028F7D113
:10E5A000A806800F04D105980078002800D0641CCC
:10E5B000002C17D0002001A9630904E082008A58CA
:10E5C000521C0DD1401C8342F8D898000A58E0062E
:10E5D000C00E2021091A0020C043C840824201D049
:10E5E00000205CE701205AE71CB50C46694600F0A4
:10E5F00039F8002812D00098019AC10708D0D10735
:10E6000040080843C1435208D0432160606004E0E1
:10E61000D10740080843510803C401201CBDF8B5C8
:10E6200007460020187008700E4610601C461546FC
:10E630006946384600F039F80146012000290AD021
:10E64000009900290CD0C808286000984007400FA6
:10E6500030700120F8BDB968002901D00020F8BD54
:10E660002070FBE7F3B5002681B03446354603E061
:10E67000402E01D30020FEBD6946019800F068F9E4
:10E680000028F8D06846077832467806400EC10F59
:10E69000FCF758FB29430443F61D0D463806E7D422
:10E6A0000298046041600120FEBDF8B50E460746A1
:10E6B000694600F04DF900280AD068460478200623
:10E6C00016D507256406640E03E0202D01D3002033
:10E6D000F8BD6946384600F03BF90028F8D0684696
:10E6E00001784806400EA8400443ED1D0806ECD40E
:10E6F00001203460F8BD00005968064A89689142DB
:10E7000006D141688068044A491C401E116050606F
:10E7100070470000D8F30300FC25002001600023AF
:10E720008360C26041608B789A1803230261CB56E4
:10E73000D21842610878002800D00120704770B5D7
:10E7400045680E46044660680178B14206D14078BB
:10E750000007000F082801D0012070BD204600F0FE
:10E7600005F86068A842EED1002070BD30B5416860
:10E770000A78002A0CD00B460C3343600A7B002A2F
:10E7800008D04C780A79A506AD0F032D07D00BE011
:10E79000002030BDC2680168FFF7C0FFF8E75D7870
:10E7A000AD06AD0F032D06D02509022D09D0A40911
:10E7B000022C09D009E08D7804690022641B0461F1
:10E7C00003E04C79624300E0042249788906890F0E
:10E7D00002D18168491C81609C78016909198918F6
:10E7E000032201619A5689184161012030BD30B57C
:10E7F00041680024497887B00A07120F082A10D010
:10E800008A091DD08A09022A09D102698906890F5D
:10E810001460022901D0032901D14069047007B0B6
:10E8200030BD0069056808E02C7329466846FEF78C
:10E8300037FB6846FFF7DBFFAD68002DF4D1EEE74C
:10E840008906890F012911D00229E6D00329E4D0D5
:10E85000426851780907090F07290AD091680029F1
:10E860000CD012790069FCF77DFAD8E741690C7089
:10E87000EEE70169906800F02AF8D0E711790069A5
:10E88000FCF789FACBE7000010B5024B002408C062
:10E8900016C010BDD3C4030038B50D460446694602
:10E8A000FFF703FF00280BD0E368A16805CCEB60FD
:10E8B000A96005C50098083C083D814201D20020AE
:10E8C00038BDA860A168081AA060012038BD00B555
:10E8D0000A4687B001466846FFF720FF002807D0A8
:10E8E0006846FFF784FF6846FFF740FF0028F7D12E
:10E8F00007B000BD7FB514460546002915D1134A5F
:10E900002868904208D110E0102269462846FFF797
:10E91000F1FF002807D0103C102CF5D8224669469C
:10E920002846FFF7E7FF04B070BDA868A04201D2F7
:10E930000020F8E72B682246284698470028F2D0A6
:10E94000A868001BA8600120EDE70000D3C4030005
:10E9500010B504468068002809D0236801222046AB
:10E960009847002803D0A068401EA060012010BD79
:10E9700038B50024002907D0012913D0022913D06B
:10E9800005291FD0002038BD0546012269462846CA
:10E99000FFF7B0FF002813D0684600780006F4D4D3
:10E9A000012038BD08220EE005466946FFF77DFECE
:10E9B000002805D000212846009AFFF79BFF38BDAC
:10E9C000204638BD04220021F7E700000848416EC8
:10E9D000491E416604D10749FD230A781A400A708E
:10E9E000016E491C0166042901D1002101667047AE
:10E9F0008C3100206C26002070B50C490446486E0E
:10EA0000042810D00A6E1218042A00D3121F401CCA
:10EA1000486618204243551801462846FCF7BBF9C2
:10EA20000120256070BD002070BD00008C310020E9
:10EA300010B518481822016E51430C18406E00287A
:10EA40001FD0207A012802D0022816D10FE0A18A17
:10EA5000E08A091AFF2901DC8AB201E0FF220132B3
:10EA6000E168800023690918181829DF01E0A089EE
:10EA700028DF112806D0002803D00921204600F005
:10EA80002FF910BD0449FD220878104004221043DC
:10EA9000087010BD8C3100206C26002010B5054890
:10EAA00001784A07920F04D1022211430170FFF747
:10EAB000BFFF10BD6C260020016806C98A4201D341
:10EAC000501A70478068401A401C80187047F8B58B
:10EAD0001E681C4615460746002904D0012917D098
:10EAE000052921D118E000202060401C2060B042A0
:10EAF0001AD8012229463846FFF7FCFE002806D026
:10EB000028786D1C000601D52068EEE70120F8BDCD
:10EB100008200246186002E00420024618602946D8
:10EB20003846FFF7E7FEF8BD0020F8BDF7B5114DF8
:10EB30000A46064628881049884218D0287AC00715
:10EB400015D00E4C60202070032161700120A07050
:10EB5000E11C104600F0D2FBC71CE119029800F03E
:10EB6000CDFBC219B189288800F0DEF8FEBD08206F
:10EB7000FEBD000018260020FFFF0000CC2C002066
:10EB8000FFB5144D0A4606462888134981B08842CD
:10EB90001ED0287AC0071BD0104C602020700621A0
:10EBA00061700120A070E11C104600F0A7FBC71C9B
:10EBB000E119039800F0A2FBC719E119049800F0CD
:10EBC0009DFBC219B189288800F0AEF805B0F0BDF0
:10EBD0000820FBE718260020FFFF0000CC2C0020B7
:10EBE00070B50A4B04461888094DA8420CD01B7A10
:10EBF000DB0709D0074B60251D7059709A700322FE
:10EC0000A18900F091F870BD082070BD1826002081
:10EC1000FFFF0000CC2C002070B501240B496004DC
:10EC200008600B4940108860094940398860094DE7
:10EC30006C602F20FEF76CFAAC60074D00242F208B
:10EC4000AC60FEF765FAAC7070BD000080E100E0DA
:10EC500040130140001001404026002010B504463A
:10EC6000FDF7BCF800280CD0A007C00E002C0ADA73
:10EC70002107090F08398908144A89008918C969C8
:10EC800006E0134810BDA108124A890089180968D6
:10EC9000C1400806800F042811D200280FD0022896
:10ECA0000DD00D494B68E206D20E01209040002B9A
:10ECB00008D0620992008B5803438B5004E004484B
:10ECC000401C10BD05490860002010BD00ED00E0AB
:10ECD0000120000000E400E06426002000E100E0E4
:10ECE0001FB500220092019202920392037A012B37
:10ECF00002D0022B11D106E06B461A700269029213
:10ED0000828A9A8109E001236A4613708289C38945
:10ED1000D31A6A461381838953814268019200683D
:10ED20008268684690471FBD07B584B000220092F4
:10ED300001926A4611800121917006A9029103494E
:10ED400003916946A6DF07B000BD0000CC2C00206F
:10ED5000F8B516460D46040008D0002D06D0206CEC
:10ED6000802200213828225403D307E00E20F8BD6A
:10ED70002154401C3828FBD30BE02154401C402870
:10ED8000FBD32146084600F095F838212046FCF7D1
:10ED900002F8236CA26C590FDB00E06CD2184841DA
:10EDA0002146A2640306170A2031E0641F43CA7794
:10EDB0008F770304170C1F430302100E4F7718437D
:10EDC0000877E06CC876020A8A76020C4A76000E52
:10EDD00008762146084600F06DF8002E1ED000216E
:10EDE000E26EC800C2406A54A36EC3406A18137131
:10EDF000636EC3401372236EC3401373E36DC3404D
:10EE00001374A36DC3401375636DC3401376236DF4
:10EE1000C340491C13770429E2D31FE000211823C3
:10EE2000C800226D181AC2406A54666DC6406A183E
:10EE30001671A66DC6401672E66DC6401673266E34
:10EE4000C6401674666EC6401675A66EC640167627
:10EE5000E66EC640491C16770429E1D30020F8BDB0
:10EE6000002815D0002101648164C164094901654D
:10EE700009494165094981650949C1650949016631
:10EE800009494166094981660949C1660020704700
:10EE90000E20704767E6096A85AE67BB72F36E3C69
:10EEA0003AF54FA57F520E518C68059BABD9831F55
:10EEB00019CDE05BF0B5CCB0002214460CAB0D19B7
:10EEC0006E782F7836023E43AF7876BA36043F022A
:10EED000ED783E432E439500521C241D5E51102AAE
:10EEE000EDD320E09100CD18803DAB6F8C4611240E
:10EEF0001946E14113241E46E64171409B0A5940E0
:10EF00006B6C07271E46FB4134461227FC415C40D0
:10EF1000F3085C4009192C6C6B6E1B19CC18614608
:10EF20000CAB5C50521C402ADCD3016D0B91476D39
:10EF30000A97836D0993C26D06920092026E089241
:10EF4000446E0794A646846E05940194C46E04949E
:10EF500002940024A44606261446F4410B261546C6
:10EF6000F5416C4019261546F5416C40019E7546E9
:10EF7000154096436E40A6196446A400254D03949F
:10EF80002D59029C2C193619039C0CAD2C590D4699
:10EF90003419039402260C46F4410D26F5416540D0
:10EFA00016260C46F44165403C465C403E460C400B
:10EFB0001E4074402D19019C029474469646009A96
:10EFC0000194039C00933B460F4612196119644655
:10EFD000641CA446402CBED30B9C611801650A99A1
:10EFE000C91941650999C9188165009B0699C91815
:10EFF000C165089989180166079971444166019AAB
:10F00000059989188166029A04998918C1664CB0DD
:10F01000F0BD0000BCF50300F0B516460F46040035
:10F0200005D0002E1ED0002F01D0002518E00E20A4
:10F03000F0BD216C785D6054206C401C2064402839
:10F040000DD121460846FFF735FF0123A16C5B0275
:10F050000022E06CC91822645041A164E0646D1C78
:10F06000B542E6D30020F0BD002803D00249C860B5
:10F07000002070470E207047702600201CB5034901
:10F0800001910091694660DF1CBD0000E025002071
:10F0900070B50E460546144614211046FBF77BFE5C
:10F0A0000120002120802161217326726572002DCC
:10F0B00000D0A072002070BD10B5002902D0002041
:10F0C000FCF7FAFEFDF772FE10BD000010B500213E
:10F0D000024A0846FCF7F2FE10BD0000B9F003003A
:10F0E00010B5FCF7E7FE10BDF8B5002903D08C077A
:10F0F0000025002C01D00720F8BD0E4E0E4FB16048
:10F1000072807360396801246603314203D00A4972
:10F11000254680310E60094910DF002803D0002DFC
:10F12000EAD03E60F8BD034804701620FFF796FD54
:10F13000F8BD00007026002000E100E0E1F00300CF
:10F14000014800787047000070260020002803D096
:10F1500002490861002070470E2070477026002089
:10F16000FEB51F4C0025A768606802906846FDF751
:10F17000EFFC0190FDF7AAFE06460198002822D078
:10F1800000230098616817E00E680A46864202D99B
:10F19000301A086012E0801BF31800261660D6684B
:10F1A000D169B446002E07D0FE183602360A5660E2
:10F1B00066469660D56115460029E5D1284661600E
:10F1C000FDF7DAFE06E02846FDF7D6FE002801D15D
:10F1D000002E02D00298FDF79BF90020E070FEBDE2
:10F1E0004026002001200249000508607047000009
:10F1F00000E200E010B50E4B5968002906D0026805
:10F200000C68A24204D8A21A0A60C161586010BDFD
:10F210000B4604E00B46C969121B002904D00C6898
:10F220009442F7D3A41A0C600260C161D86110BD8A
:10F23000402600207CB50D460646002469460C7029
:10F240006846FCF77FFF01A800F094F800280DD075
:10F25000057046606846084900794870684600783D
:10F26000FCF78EFFFFF7BEFF20467CBD68460424F6
:10F270000078FCF785FFF7E750260020F8B51D4D14
:10F280006C68002C34D01C4800274068A968401ADC
:10F290000602360A2068B04218D8361AC719224624
:10F2A000107CE46900280FD000201074EB68002B5C
:10F2B00007D0916950699847002805D0FCF7FCFDFC
:10F2C00002E0516990698847002CE3D12978687879
:10F2D000814206D1401CC0B26870022801D10020D2
:10F2E000687004490006800D18310F50FFF77AFF4F
:10F2F000F8BD000040260020001501400870020AF9
:10F300004A70020C8A70000EC8700420704700001A
:10F3100038B51549154A488890420FD04A78144CA0
:10F32000521CD2B24A70237B934208D3091D75DF69
:10F33000002803D0A169002900D0884738BD0025E6
:10F340004D70217C002907D03B2176DF002803D0B7
:10F35000A169002900D0884761690029EED068467C
:10F360000570884738BD000004260020FFFF00001C
:10F37000542C002010B509494B788C785A1CD2B215
:10F38000944200D100220C78944201D1002010BD9B
:10F390000270486818214B43C01810BD5026002049
:10F3A00010B501E0FDF71AFAFDF750FC0028F9D17D
:10F3B00010BD00000101000001000000000000007D
:10F3C0000205000021000000000000000000000015
:10F3D0000000000000000000011104FC0400000017
:10F3E00000000000021104FC040000000000000006
:10F3F000032104FC0404000000000000041101FFCC
:10F400000100000000000000051102FE04000000E1
:10F4100000000000061104FC0400000000000000D1
:10F42000071104FC0400000000000000081701FFA1
:10F4300022000000B4F30300091001FF01000000E6
:10F44000B2F3030000000000000000000000000014
:10F4500001010000040000000000000000000000A6
:10F460000000000000000000011101FF0100000089
:10F4700000000000021702FE64000000D8F3030041
:10F48000031704FC0400000050F403000000000017
:10F4900000000000000000000107000070000000F4
:10F4A00068F40300020100000100000000000000F9
:10F4B0000305000041000000000000000000000003
:10F4C0000000000000000000011704FC70000000B4
:10F4D00068F40300021704FCB400000098F4030071
:10F4E000000000000000000000000000CF3F998EE7
:10F4F00073EBCA98FE897B51A5E555658CE60077CC
:10F500007A1E7CD28DA4B8710BAE51180822E3C7C5
:10F51000190C0E58A0DDE3BCB5F7196FFEC0C1F899
:10F520008D347BB3F206FE966C215E55ECF403003D
:10F53000400000001516171811121314342C002067
:10F540000200000750EADA308883B89F604F15F355
:10F550000000C98E01000000000000000000000053
:10F56000000000000100000000000000000000009A
:10F570000000000002000000000000000000000089
:10F580000000000003000000000000000000000078
:10F590000000000004000000000000000000000067
:10F5A0000000000000030000803100205C310020DA
:10F5B000200000000100000000000000982F8A4297
:10F5C00091443771CFFBC0B5A5DBB5E95BC25639B5
:10F5D000F111F159A4823F92D55E1CAB98AA07D8CD
:10F5E000015B8312BE853124C37D0C55745DBE72F0
:10F5F000FEB1DE80A706DC9B74F19BC1C1699BE470
:10F600008647BEEFC69DC10FCCA10C246F2CE92DFF
:10F61000AA84744ADCA9B05CDA88F97652513E9823
:10F620006DC631A8C82703B0C77F59BFF30BE0C62A
:10F630004791A7D55163CA0667292914850AB727B8
:10F6400038211B2EFC6D2C4D130D385354730A6555
:10F65000BB0A6A762EC9C281852C7292A1E8BFA22C
:10F660004B661AA8708B4BC2A3516CC719E892D194
:10F67000240699D685350EF470A06A1016C1A41917
:10F68000086C371E4C774827B5BCB034B30C1C3916
:10F690004AAAD84E4FCA9C5BF36F2E68EE828F74D5
:10F6A0006F63A5781478C8840802C78CFAFFBE90EF
:10F6B000EB6C50A4F7A3F9BEF27871C665E30300C2
:10F6C0000FE30300B9E203002BE2030035E203007D
:10F6D000EDE103003FE203007BE2030000000000D5
:10F6E00008200001FFFFFFFFFFFFFFFFFFFFFFFFFD
:10F6F0000000000000000000000000000100000009
:10F70000FFFFFFFF512563FCC2CAB9F3849E17A710
:10F71000ADFAE6BCFFFFFFFFFFFFFFFF00000000A8
:10F72000FFFFFFFF96C298D84539A1F4A033EB2D17
:10F73000817D0377F240A463E5E6BCF847422CE103
:10F74000F2D1176BF551BF376840B6CBCE5E316B47
:10F750005733CE2B169E0F7C4AEBE78E9B7F1AFE0B
:10F76000E242E34F4B60D2273E3CCE3BF6B053CC57
:10F77000B0061D65BC86987655BDEBB3E7933AAAF3
:10F78000D835C65A91AF0300A5BB0300B1B9030039
:10F79000B8F70300E0250020B8000000BEBD03005C
:10F7A00070F8030098260020A0110000CEBD0300D1
:10F7B00085C3030005C30300010000000000000032
:10F7C0000000000000000000000000000000000039
:10F7D0000000000000000000000000000000000029
:10F7E0000000000000000000000000000000000019
:10F7F000FFFF00000000000000000000000000000B
:10F8000000000000000000000000000000000000F8
:10F8100000000000000000000000000000000000E8
:10F8200000000000000000000000000000000000D8
:10F8300000000000000000000000000000000000C8
:10F8400000000000000000000000000000000000B8
:10F850000000000000000000000000000024F40090
:10F8600000100000000C04000DCC0300000000009C
:020000041000EA
:0410140000AC030029
:040000050003ACC187
:00000001FF
